{
  "contractName": "ehr",
  "abi": [
    {
      "inputs": [
        {
          "internalType": "string",
          "name": "email",
          "type": "string"
        },
        {
          "internalType": "address",
          "name": "doctor",
          "type": "address"
        },
        {
          "internalType": "string",
          "name": "name",
          "type": "string"
        },
        {
          "internalType": "uint256",
          "name": "password",
          "type": "uint256"
        }
      ],
      "name": "addDoctor",
      "outputs": [],
      "stateMutability": "nonpayable",
      "type": "function"
    },
    {
      "inputs": [],
      "name": "viewDoctors",
      "outputs": [
        {
          "internalType": "string[]",
          "name": "",
          "type": "string[]"
        },
        {
          "internalType": "address[]",
          "name": "",
          "type": "address[]"
        },
        {
          "internalType": "string[]",
          "name": "",
          "type": "string[]"
        },
        {
          "internalType": "uint256[]",
          "name": "",
          "type": "uint256[]"
        }
      ],
      "stateMutability": "view",
      "type": "function",
      "constant": true
    },
    {
      "inputs": [
        {
          "internalType": "string",
          "name": "email",
          "type": "string"
        },
        {
          "internalType": "address",
          "name": "patient",
          "type": "address"
        },
        {
          "internalType": "string",
          "name": "name",
          "type": "string"
        },
        {
          "internalType": "uint256",
          "name": "password",
          "type": "uint256"
        }
      ],
      "name": "addPatient",
      "outputs": [],
      "stateMutability": "nonpayable",
      "type": "function"
    },
    {
      "inputs": [],
      "name": "viewPatients",
      "outputs": [
        {
          "internalType": "string[]",
          "name": "",
          "type": "string[]"
        },
        {
          "internalType": "address[]",
          "name": "",
          "type": "address[]"
        },
        {
          "internalType": "string[]",
          "name": "",
          "type": "string[]"
        },
        {
          "internalType": "uint256[]",
          "name": "",
          "type": "uint256[]"
        }
      ],
      "stateMutability": "view",
      "type": "function",
      "constant": true
    },
    {
      "inputs": [
        {
          "internalType": "address",
          "name": "doctor",
          "type": "address"
        },
        {
          "internalType": "address",
          "name": "patient",
          "type": "address"
        },
        {
          "internalType": "string",
          "name": "date",
          "type": "string"
        }
      ],
      "name": "createAppointment",
      "outputs": [],
      "stateMutability": "nonpayable",
      "type": "function"
    },
    {
      "inputs": [
        {
          "internalType": "address",
          "name": "doctor",
          "type": "address"
        },
        {
          "internalType": "address",
          "name": "patient",
          "type": "address"
        },
        {
          "internalType": "uint256",
          "name": "aid",
          "type": "uint256"
        }
      ],
      "name": "treatPatient",
      "outputs": [],
      "stateMutability": "nonpayable",
      "type": "function"
    },
    {
      "inputs": [],
      "name": "viewAppointments",
      "outputs": [
        {
          "internalType": "uint256[]",
          "name": "",
          "type": "uint256[]"
        },
        {
          "internalType": "address[]",
          "name": "",
          "type": "address[]"
        },
        {
          "internalType": "address[]",
          "name": "",
          "type": "address[]"
        },
        {
          "internalType": "string[]",
          "name": "",
          "type": "string[]"
        },
        {
          "internalType": "bool[]",
          "name": "",
          "type": "bool[]"
        }
      ],
      "stateMutability": "view",
      "type": "function",
      "constant": true
    },
    {
      "inputs": [
        {
          "internalType": "string",
          "name": "fullName",
          "type": "string"
        },
        {
          "internalType": "string",
          "name": "dob",
          "type": "string"
        },
        {
          "internalType": "string",
          "name": "gender",
          "type": "string"
        },
        {
          "internalType": "string",
          "name": "address1",
          "type": "string"
        },
        {
          "internalType": "string",
          "name": "phone",
          "type": "string"
        },
        {
          "internalType": "string",
          "name": "email",
          "type": "string"
        },
        {
          "internalType": "string",
          "name": "emergName",
          "type": "string"
        },
        {
          "internalType": "string",
          "name": "emergRelation",
          "type": "string"
        },
        {
          "internalType": "string",
          "name": "emergContact",
          "type": "string"
        }
      ],
      "name": "storeDemographics",
      "outputs": [],
      "stateMutability": "nonpayable",
      "type": "function"
    },
    {
      "inputs": [],
      "name": "viewDemographics",
      "outputs": [
        {
          "internalType": "string[]",
          "name": "",
          "type": "string[]"
        },
        {
          "internalType": "string[]",
          "name": "",
          "type": "string[]"
        },
        {
          "internalType": "string[]",
          "name": "",
          "type": "string[]"
        },
        {
          "internalType": "string[]",
          "name": "",
          "type": "string[]"
        },
        {
          "internalType": "string[]",
          "name": "",
          "type": "string[]"
        },
        {
          "internalType": "string[]",
          "name": "",
          "type": "string[]"
        },
        {
          "internalType": "string[]",
          "name": "",
          "type": "string[]"
        },
        {
          "internalType": "string[]",
          "name": "",
          "type": "string[]"
        },
        {
          "internalType": "string[]",
          "name": "",
          "type": "string[]"
        }
      ],
      "stateMutability": "view",
      "type": "function",
      "constant": true
    },
    {
      "inputs": [
        {
          "internalType": "string",
          "name": "meds",
          "type": "string"
        },
        {
          "internalType": "string",
          "name": "allergies",
          "type": "string"
        },
        {
          "internalType": "string",
          "name": "pastMedHistory",
          "type": "string"
        },
        {
          "internalType": "string",
          "name": "famMedHistory",
          "type": "string"
        },
        {
          "internalType": "string",
          "name": "socialHistory",
          "type": "string"
        }
      ],
      "name": "storeMedicalHistory",
      "outputs": [],
      "stateMutability": "nonpayable",
      "type": "function"
    },
    {
      "inputs": [],
      "name": "viewMedicalHistory",
      "outputs": [
        {
          "internalType": "string[]",
          "name": "",
          "type": "string[]"
        },
        {
          "internalType": "string[]",
          "name": "",
          "type": "string[]"
        },
        {
          "internalType": "string[]",
          "name": "",
          "type": "string[]"
        },
        {
          "internalType": "string[]",
          "name": "",
          "type": "string[]"
        },
        {
          "internalType": "string[]",
          "name": "",
          "type": "string[]"
        }
      ],
      "stateMutability": "view",
      "type": "function",
      "constant": true
    },
    {
      "inputs": [
        {
          "internalType": "string",
          "name": "bp",
          "type": "string"
        },
        {
          "internalType": "string",
          "name": "pulse",
          "type": "string"
        },
        {
          "internalType": "string",
          "name": "temp",
          "type": "string"
        },
        {
          "internalType": "string",
          "name": "respiratoryRate",
          "type": "string"
        },
        {
          "internalType": "string",
          "name": "weight",
          "type": "string"
        },
        {
          "internalType": "string",
          "name": "height",
          "type": "string"
        },
        {
          "internalType": "string",
          "name": "bmi",
          "type": "string"
        },
        {
          "internalType": "string",
          "name": "reasonforvisit",
          "type": "string"
        },
        {
          "internalType": "string",
          "name": "physicalexamination",
          "type": "string"
        },
        {
          "internalType": "string",
          "name": "diagnosis",
          "type": "string"
        }
      ],
      "name": "storeClinicalData",
      "outputs": [],
      "stateMutability": "nonpayable",
      "type": "function"
    },
    {
      "inputs": [],
      "name": "viewClinicalData",
      "outputs": [
        {
          "internalType": "string[]",
          "name": "",
          "type": "string[]"
        },
        {
          "internalType": "string[]",
          "name": "",
          "type": "string[]"
        },
        {
          "internalType": "string[]",
          "name": "",
          "type": "string[]"
        },
        {
          "internalType": "string[]",
          "name": "",
          "type": "string[]"
        },
        {
          "internalType": "string[]",
          "name": "",
          "type": "string[]"
        },
        {
          "internalType": "string[]",
          "name": "",
          "type": "string[]"
        },
        {
          "internalType": "string[]",
          "name": "",
          "type": "string[]"
        },
        {
          "internalType": "string[]",
          "name": "",
          "type": "string[]"
        },
        {
          "internalType": "string[]",
          "name": "",
          "type": "string[]"
        },
        {
          "internalType": "string[]",
          "name": "",
          "type": "string[]"
        }
      ],
      "stateMutability": "view",
      "type": "function",
      "constant": true
    }
  ],
  "bytecode": "0x60806040526000600b5534801561001557600080fd5b50613b71806100256000396000f3fe608060405234801561001057600080fd5b50600436106100cf5760003560e01c80633e2ed1631161008c578063bd9178af11610066578063bd9178af146101f0578063c58be01014610211578063cf1aa8e51461022d578063e68c74771461024f576100cf565b80633e2ed1631461019c578063b024859b146101b8578063b77ea8ee146101d4576100cf565b8063014f03c5146100d457806309e90fde146100fa5780630a9b45651461011c578063181b69d9146101385780631c13ab611461015f578063282732a214610180575b600080fd5b6100dc61026b565b6040516100f199989796959493929190612a40565b60405180910390f35b610102610a13565b604051610113959493929190612d8e565b60405180910390f35b61013660048036038101906101319190612e70565b610ce2565b005b610140610e5b565b6040516101569a99989796959493929190612ec3565b60405180910390f35b6101676116dc565b6040516101779493929190612fa5565b60405180910390f35b61019a6004803603810190610195919061313b565b611978565b005b6101b660048036038101906101b191906131da565b611a74565b005b6101d260048036038101906101cd91906133d1565b611c92565b005b6101ee60048036038101906101e991906134d8565b611da2565b005b6101f8611f8a565b6040516102089493929190612fa5565b60405180910390f35b61022b6004803603810190610226919061313b565b612226565b005b610235612322565b60405161024695949392919061369e565b60405180910390f35b61026960048036038101906102649190613714565b612764565b005b6060806060806060806060806060600c600d600e600f6010601160126013601488805480602002602001604051908101604052809291908181526020016000905b828210156103585783829060005260206000200180546102cb906137b2565b80601f01602080910402602001604051908101604052809291908181526020018280546102f7906137b2565b80156103445780601f1061031957610100808354040283529160200191610344565b820191906000526020600020905b81548152906001019060200180831161032757829003601f168201915b5050505050815260200190600101906102ac565b50505050985087805480602002602001604051908101604052809291908181526020016000905b8282101561042b57838290600052602060002001805461039e906137b2565b80601f01602080910402602001604051908101604052809291908181526020018280546103ca906137b2565b80156104175780601f106103ec57610100808354040283529160200191610417565b820191906000526020600020905b8154815290600101906020018083116103fa57829003601f168201915b50505050508152602001906001019061037f565b50505050975086805480602002602001604051908101604052809291908181526020016000905b828210156104fe578382906000526020600020018054610471906137b2565b80601f016020809104026020016040519081016040528092919081815260200182805461049d906137b2565b80156104ea5780601f106104bf576101008083540402835291602001916104ea565b820191906000526020600020905b8154815290600101906020018083116104cd57829003601f168201915b505050505081526020019060010190610452565b50505050965085805480602002602001604051908101604052809291908181526020016000905b828210156105d1578382906000526020600020018054610544906137b2565b80601f0160208091040260200160405190810160405280929190818152602001828054610570906137b2565b80156105bd5780601f10610592576101008083540402835291602001916105bd565b820191906000526020600020905b8154815290600101906020018083116105a057829003601f168201915b505050505081526020019060010190610525565b50505050955084805480602002602001604051908101604052809291908181526020016000905b828210156106a4578382906000526020600020018054610617906137b2565b80601f0160208091040260200160405190810160405280929190818152602001828054610643906137b2565b80156106905780601f1061066557610100808354040283529160200191610690565b820191906000526020600020905b81548152906001019060200180831161067357829003601f168201915b5050505050815260200190600101906105f8565b50505050945083805480602002602001604051908101604052809291908181526020016000905b828210156107775783829060005260206000200180546106ea906137b2565b80601f0160208091040260200160405190810160405280929190818152602001828054610716906137b2565b80156107635780601f1061073857610100808354040283529160200191610763565b820191906000526020600020905b81548152906001019060200180831161074657829003601f168201915b5050505050815260200190600101906106cb565b50505050935082805480602002602001604051908101604052809291908181526020016000905b8282101561084a5783829060005260206000200180546107bd906137b2565b80601f01602080910402602001604051908101604052809291908181526020018280546107e9906137b2565b80156108365780601f1061080b57610100808354040283529160200191610836565b820191906000526020600020905b81548152906001019060200180831161081957829003601f168201915b50505050508152602001906001019061079e565b50505050925081805480602002602001604051908101604052809291908181526020016000905b8282101561091d578382906000526020600020018054610890906137b2565b80601f01602080910402602001604051908101604052809291908181526020018280546108bc906137b2565b80156109095780601f106108de57610100808354040283529160200191610909565b820191906000526020600020905b8154815290600101906020018083116108ec57829003601f168201915b505050505081526020019060010190610871565b50505050915080805480602002602001604051908101604052809291908181526020016000905b828210156109f0578382906000526020600020018054610963906137b2565b80601f016020809104026020016040519081016040528092919081815260200182805461098f906137b2565b80156109dc5780601f106109b1576101008083540402835291602001916109dc565b820191906000526020600020905b8154815290600101906020018083116109bf57829003601f168201915b505050505081526020019060010190610944565b505050509050985098509850985098509850985098509850909192939495969798565b6060806060806060600a600960086024602584805480602002602001604051908101604052809291908181526020018280548015610a7057602002820191906000526020600020905b815481526020019060010190808311610a5c575b5050505050945083805480602002602001604051908101604052809291908181526020018280548015610af857602002820191906000526020600020905b8160009054906101000a900473ffffffffffffffffffffffffffffffffffffffff1673ffffffffffffffffffffffffffffffffffffffff1681526020019060010190808311610aae575b5050505050935082805480602002602001604051908101604052809291908181526020018280548015610b8057602002820191906000526020600020905b8160009054906101000a900473ffffffffffffffffffffffffffffffffffffffff1673ffffffffffffffffffffffffffffffffffffffff1681526020019060010190808311610b36575b5050505050925081805480602002602001604051908101604052809291908181526020016000905b82821015610c54578382906000526020600020018054610bc7906137b2565b80601f0160208091040260200160405190810160405280929190818152602001828054610bf3906137b2565b8015610c405780601f10610c1557610100808354040283529160200191610c40565b820191906000526020600020905b815481529060010190602001808311610c2357829003601f168201915b505050505081526020019060010190610ba8565b50505050915080805480602002602001604051908101604052809291908181526020018280548015610cca57602002820191906000526020600020906000905b82829054906101000a900460ff16151581526020019060010190602082600001049283019260010382029150808411610c945790505b50505050509050945094509450945094509091929394565b60005b600980549050811015610e55578373ffffffffffffffffffffffffffffffffffffffff1660098281548110610d1d57610d1c6137e3565b5b9060005260206000200160009054906101000a900473ffffffffffffffffffffffffffffffffffffffff1673ffffffffffffffffffffffffffffffffffffffff16148015610dd457508273ffffffffffffffffffffffffffffffffffffffff1660088281548110610d9157610d906137e3565b5b9060005260206000200160009054906101000a900473ffffffffffffffffffffffffffffffffffffffff1673ffffffffffffffffffffffffffffffffffffffff16145b8015610dfd575081600a8281548110610df057610def6137e3565b5b9060005260206000200154145b15610e4257600160258281548110610e1857610e176137e3565b5b90600052602060002090602091828204019190066101000a81548160ff0219169083151502179055505b8080610e4d90613841565b915050610ce5565b50505050565b606080606080606080606080606080601a601b601c601d601e601f602060216022602389805480602002602001604051908101604052809291908181526020016000905b82821015610f4b578382906000526020600020018054610ebe906137b2565b80601f0160208091040260200160405190810160405280929190818152602001828054610eea906137b2565b8015610f375780601f10610f0c57610100808354040283529160200191610f37565b820191906000526020600020905b815481529060010190602001808311610f1a57829003601f168201915b505050505081526020019060010190610e9f565b50505050995088805480602002602001604051908101604052809291908181526020016000905b8282101561101e578382906000526020600020018054610f91906137b2565b80601f0160208091040260200160405190810160405280929190818152602001828054610fbd906137b2565b801561100a5780601f10610fdf5761010080835404028352916020019161100a565b820191906000526020600020905b815481529060010190602001808311610fed57829003601f168201915b505050505081526020019060010190610f72565b50505050985087805480602002602001604051908101604052809291908181526020016000905b828210156110f1578382906000526020600020018054611064906137b2565b80601f0160208091040260200160405190810160405280929190818152602001828054611090906137b2565b80156110dd5780601f106110b2576101008083540402835291602001916110dd565b820191906000526020600020905b8154815290600101906020018083116110c057829003601f168201915b505050505081526020019060010190611045565b50505050975086805480602002602001604051908101604052809291908181526020016000905b828210156111c4578382906000526020600020018054611137906137b2565b80601f0160208091040260200160405190810160405280929190818152602001828054611163906137b2565b80156111b05780601f10611185576101008083540402835291602001916111b0565b820191906000526020600020905b81548152906001019060200180831161119357829003601f168201915b505050505081526020019060010190611118565b50505050965085805480602002602001604051908101604052809291908181526020016000905b8282101561129757838290600052602060002001805461120a906137b2565b80601f0160208091040260200160405190810160405280929190818152602001828054611236906137b2565b80156112835780601f1061125857610100808354040283529160200191611283565b820191906000526020600020905b81548152906001019060200180831161126657829003601f168201915b5050505050815260200190600101906111eb565b50505050955084805480602002602001604051908101604052809291908181526020016000905b8282101561136a5783829060005260206000200180546112dd906137b2565b80601f0160208091040260200160405190810160405280929190818152602001828054611309906137b2565b80156113565780601f1061132b57610100808354040283529160200191611356565b820191906000526020600020905b81548152906001019060200180831161133957829003601f168201915b5050505050815260200190600101906112be565b50505050945083805480602002602001604051908101604052809291908181526020016000905b8282101561143d5783829060005260206000200180546113b0906137b2565b80601f01602080910402602001604051908101604052809291908181526020018280546113dc906137b2565b80156114295780601f106113fe57610100808354040283529160200191611429565b820191906000526020600020905b81548152906001019060200180831161140c57829003601f168201915b505050505081526020019060010190611391565b50505050935082805480602002602001604051908101604052809291908181526020016000905b82821015611510578382906000526020600020018054611483906137b2565b80601f01602080910402602001604051908101604052809291908181526020018280546114af906137b2565b80156114fc5780601f106114d1576101008083540402835291602001916114fc565b820191906000526020600020905b8154815290600101906020018083116114df57829003601f168201915b505050505081526020019060010190611464565b50505050925081805480602002602001604051908101604052809291908181526020016000905b828210156115e3578382906000526020600020018054611556906137b2565b80601f0160208091040260200160405190810160405280929190818152602001828054611582906137b2565b80156115cf5780601f106115a4576101008083540402835291602001916115cf565b820191906000526020600020905b8154815290600101906020018083116115b257829003601f168201915b505050505081526020019060010190611537565b50505050915080805480602002602001604051908101604052809291908181526020016000905b828210156116b6578382906000526020600020018054611629906137b2565b80601f0160208091040260200160405190810160405280929190818152602001828054611655906137b2565b80156116a25780601f10611677576101008083540402835291602001916116a2565b820191906000526020600020905b81548152906001019060200180831161168557829003601f168201915b50505050508152602001906001019061160a565b505050509050995099509950995099509950995099509950995090919293949596979899565b606080606080600760046005600683805480602002602001604051908101604052809291908181526020016000905b828210156117b757838290600052602060002001805461172a906137b2565b80601f0160208091040260200160405190810160405280929190818152602001828054611756906137b2565b80156117a35780601f10611778576101008083540402835291602001916117a3565b820191906000526020600020905b81548152906001019060200180831161178657829003601f168201915b50505050508152602001906001019061170b565b5050505093508280548060200260200160405190810160405280929190818152602001828054801561183e57602002820191906000526020600020905b8160009054906101000a900473ffffffffffffffffffffffffffffffffffffffff1673ffffffffffffffffffffffffffffffffffffffff16815260200190600101908083116117f4575b5050505050925081805480602002602001604051908101604052809291908181526020016000905b82821015611912578382906000526020600020018054611885906137b2565b80601f01602080910402602001604051908101604052809291908181526020018280546118b1906137b2565b80156118fe5780601f106118d3576101008083540402835291602001916118fe565b820191906000526020600020905b8154815290600101906020018083116118e157829003601f168201915b505050505081526020019060010190611866565b5050505091508080548060200260200160405190810160405280929190818152602001828054801561196357602002820191906000526020600020905b81548152602001906001019080831161194f575b50505050509050935093509350935090919293565b6004839080600181540180825580915050600190039060005260206000200160009091909190916101000a81548173ffffffffffffffffffffffffffffffffffffffff021916908373ffffffffffffffffffffffffffffffffffffffff160217905550600582908060018154018082558091505060019003906000526020600020016000909190919091509081611a0f9190613a35565b506006819080600181540180825580915050600190039060005260206000200160009091909190915055600784908060018154018082558091505060019003906000526020600020016000909190919091509081611a6d9190613a35565b5050505050565b601a8a908060018154018082558091505060019003906000526020600020016000909190919091509081611aa89190613a35565b50601b89908060018154018082558091505060019003906000526020600020016000909190919091509081611add9190613a35565b50601c88908060018154018082558091505060019003906000526020600020016000909190919091509081611b129190613a35565b50601d87908060018154018082558091505060019003906000526020600020016000909190919091509081611b479190613a35565b50601e86908060018154018082558091505060019003906000526020600020016000909190919091509081611b7c9190613a35565b50601f85908060018154018082558091505060019003906000526020600020016000909190919091509081611bb19190613a35565b50602084908060018154018082558091505060019003906000526020600020016000909190919091509081611be69190613a35565b50602183908060018154018082558091505060019003906000526020600020016000909190919091509081611c1b9190613a35565b50602282908060018154018082558091505060019003906000526020600020016000909190919091509081611c509190613a35565b50602381908060018154018082558091505060019003906000526020600020016000909190919091509081611c859190613a35565b5050505050505050505050565b601585908060018154018082558091505060019003906000526020600020016000909190919091509081611cc69190613a35565b50601684908060018154018082558091505060019003906000526020600020016000909190919091509081611cfb9190613a35565b50601783908060018154018082558091505060019003906000526020600020016000909190919091509081611d309190613a35565b50601882908060018154018082558091505060019003906000526020600020016000909190919091509081611d659190613a35565b50601981908060018154018082558091505060019003906000526020600020016000909190919091509081611d9a9190613a35565b505050505050565b600c89908060018154018082558091505060019003906000526020600020016000909190919091509081611dd69190613a35565b50600d88908060018154018082558091505060019003906000526020600020016000909190919091509081611e0b9190613a35565b50600e87908060018154018082558091505060019003906000526020600020016000909190919091509081611e409190613a35565b50600f86908060018154018082558091505060019003906000526020600020016000909190919091509081611e759190613a35565b50601085908060018154018082558091505060019003906000526020600020016000909190919091509081611eaa9190613a35565b50601184908060018154018082558091505060019003906000526020600020016000909190919091509081611edf9190613a35565b50601283908060018154018082558091505060019003906000526020600020016000909190919091509081611f149190613a35565b50601382908060018154018082558091505060019003906000526020600020016000909190919091509081611f499190613a35565b50601481908060018154018082558091505060019003906000526020600020016000909190919091509081611f7e9190613a35565b50505050505050505050565b606080606080600360006001600283805480602002602001604051908101604052809291908181526020016000905b82821015612065578382906000526020600020018054611fd8906137b2565b80601f0160208091040260200160405190810160405280929190818152602001828054612004906137b2565b80156120515780601f1061202657610100808354040283529160200191612051565b820191906000526020600020905b81548152906001019060200180831161203457829003601f168201915b505050505081526020019060010190611fb9565b505050509350828054806020026020016040519081016040528092919081815260200182805480156120ec57602002820191906000526020600020905b8160009054906101000a900473ffffffffffffffffffffffffffffffffffffffff1673ffffffffffffffffffffffffffffffffffffffff16815260200190600101908083116120a2575b5050505050925081805480602002602001604051908101604052809291908181526020016000905b828210156121c0578382906000526020600020018054612133906137b2565b80601f016020809104026020016040519081016040528092919081815260200182805461215f906137b2565b80156121ac5780601f10612181576101008083540402835291602001916121ac565b820191906000526020600020905b81548152906001019060200180831161218f57829003601f168201915b505050505081526020019060010190612114565b5050505091508080548060200260200160405190810160405280929190818152602001828054801561221157602002820191906000526020600020905b8154815260200190600101908083116121fd575b50505050509050935093509350935090919293565b6000839080600181540180825580915050600190039060005260206000200160009091909190916101000a81548173ffffffffffffffffffffffffffffffffffffffff021916908373ffffffffffffffffffffffffffffffffffffffff1602179055506001829080600181540180825580915050600190039060005260206000200160009091909190915090816122bd9190613a35565b506003849080600181540180825580915050600190039060005260206000200160009091909190915090816122f29190613a35565b50600281908060018154018082558091505060019003906000526020600020016000909190919091505550505050565b60608060608060606015601660176018601984805480602002602001604051908101604052809291908181526020016000905b82821015612401578382906000526020600020018054612374906137b2565b80601f01602080910402602001604051908101604052809291908181526020018280546123a0906137b2565b80156123ed5780601f106123c2576101008083540402835291602001916123ed565b820191906000526020600020905b8154815290600101906020018083116123d057829003601f168201915b505050505081526020019060010190612355565b50505050945083805480602002602001604051908101604052809291908181526020016000905b828210156124d4578382906000526020600020018054612447906137b2565b80601f0160208091040260200160405190810160405280929190818152602001828054612473906137b2565b80156124c05780601f10612495576101008083540402835291602001916124c0565b820191906000526020600020905b8154815290600101906020018083116124a357829003601f168201915b505050505081526020019060010190612428565b50505050935082805480602002602001604051908101604052809291908181526020016000905b828210156125a757838290600052602060002001805461251a906137b2565b80601f0160208091040260200160405190810160405280929190818152602001828054612546906137b2565b80156125935780601f1061256857610100808354040283529160200191612593565b820191906000526020600020905b81548152906001019060200180831161257657829003601f168201915b5050505050815260200190600101906124fb565b50505050925081805480602002602001604051908101604052809291908181526020016000905b8282101561267a5783829060005260206000200180546125ed906137b2565b80601f0160208091040260200160405190810160405280929190818152602001828054612619906137b2565b80156126665780601f1061263b57610100808354040283529160200191612666565b820191906000526020600020905b81548152906001019060200180831161264957829003601f168201915b5050505050815260200190600101906125ce565b50505050915080805480602002602001604051908101604052809291908181526020016000905b8282101561274d5783829060005260206000200180546126c0906137b2565b80601f01602080910402602001604051908101604052809291908181526020018280546126ec906137b2565b80156127395780601f1061270e57610100808354040283529160200191612739565b820191906000526020600020905b81548152906001019060200180831161271c57829003601f168201915b5050505050815260200190600101906126a1565b505050509050945094509450945094509091929394565b6001600b60008282546127779190613b07565b92505081905550600a600b5490806001815401808255809150506001900390600052602060002001600090919091909150556009839080600181540180825580915050600190039060005260206000200160009091909190916101000a81548173ffffffffffffffffffffffffffffffffffffffff021916908373ffffffffffffffffffffffffffffffffffffffff1602179055506008829080600181540180825580915050600190039060005260206000200160009091909190916101000a81548173ffffffffffffffffffffffffffffffffffffffff021916908373ffffffffffffffffffffffffffffffffffffffff1602179055506024819080600181540180825580915050600190039060005260206000200160009091909190915090816128a39190613a35565b506025600090806001815401808255809150506001900390600052602060002090602091828204019190069091909190916101000a81548160ff021916908315150217905550505050565b600081519050919050565b600082825260208201905092915050565b6000819050602082019050919050565b600081519050919050565b600082825260208201905092915050565b60005b83811015612954578082015181840152602081019050612939565b60008484015250505050565b6000601f19601f8301169050919050565b600061297c8261291a565b6129868185612925565b9350612996818560208601612936565b61299f81612960565b840191505092915050565b60006129b68383612971565b905092915050565b6000602082019050919050565b60006129d6826128ee565b6129e081856128f9565b9350836020820285016129f28561290a565b8060005b85811015612a2e5784840389528151612a0f85826129aa565b9450612a1a836129be565b925060208a019950506001810190506129f6565b50829750879550505050505092915050565b6000610120820190508181036000830152612a5b818c6129cb565b90508181036020830152612a6f818b6129cb565b90508181036040830152612a83818a6129cb565b90508181036060830152612a9781896129cb565b90508181036080830152612aab81886129cb565b905081810360a0830152612abf81876129cb565b905081810360c0830152612ad381866129cb565b905081810360e0830152612ae781856129cb565b9050818103610100830152612afc81846129cb565b90509a9950505050505050505050565b600081519050919050565b600082825260208201905092915050565b6000819050602082019050919050565b6000819050919050565b612b4b81612b38565b82525050565b6000612b5d8383612b42565b60208301905092915050565b6000602082019050919050565b6000612b8182612b0c565b612b8b8185612b17565b9350612b9683612b28565b8060005b83811015612bc7578151612bae8882612b51565b9750612bb983612b69565b925050600181019050612b9a565b5085935050505092915050565b600081519050919050565b600082825260208201905092915050565b6000819050602082019050919050565b600073ffffffffffffffffffffffffffffffffffffffff82169050919050565b6000612c2b82612c00565b9050919050565b612c3b81612c20565b82525050565b6000612c4d8383612c32565b60208301905092915050565b6000602082019050919050565b6000612c7182612bd4565b612c7b8185612bdf565b9350612c8683612bf0565b8060005b83811015612cb7578151612c9e8882612c41565b9750612ca983612c59565b925050600181019050612c8a565b5085935050505092915050565b600081519050919050565b600082825260208201905092915050565b6000819050602082019050919050565b60008115159050919050565b612d0581612cf0565b82525050565b6000612d178383612cfc565b60208301905092915050565b6000602082019050919050565b6000612d3b82612cc4565b612d458185612ccf565b9350612d5083612ce0565b8060005b83811015612d81578151612d688882612d0b565b9750612d7383612d23565b925050600181019050612d54565b5085935050505092915050565b600060a0820190508181036000830152612da88188612b76565b90508181036020830152612dbc8187612c66565b90508181036040830152612dd08186612c66565b90508181036060830152612de481856129cb565b90508181036080830152612df88184612d30565b90509695505050505050565b6000604051905090565b600080fd5b600080fd5b612e2181612c20565b8114612e2c57600080fd5b50565b600081359050612e3e81612e18565b92915050565b612e4d81612b38565b8114612e5857600080fd5b50565b600081359050612e6a81612e44565b92915050565b600080600060608486031215612e8957612e88612e0e565b5b6000612e9786828701612e2f565b9350506020612ea886828701612e2f565b9250506040612eb986828701612e5b565b9150509250925092565b6000610140820190508181036000830152612ede818d6129cb565b90508181036020830152612ef2818c6129cb565b90508181036040830152612f06818b6129cb565b90508181036060830152612f1a818a6129cb565b90508181036080830152612f2e81896129cb565b905081810360a0830152612f4281886129cb565b905081810360c0830152612f5681876129cb565b905081810360e0830152612f6a81866129cb565b9050818103610100830152612f7f81856129cb565b9050818103610120830152612f9481846129cb565b90509b9a5050505050505050505050565b60006080820190508181036000830152612fbf81876129cb565b90508181036020830152612fd38186612c66565b90508181036040830152612fe781856129cb565b90508181036060830152612ffb8184612b76565b905095945050505050565b600080fd5b600080fd5b7f4e487b7100000000000000000000000000000000000000000000000000000000600052604160045260246000fd5b61304882612960565b810181811067ffffffffffffffff8211171561306757613066613010565b5b80604052505050565b600061307a612e04565b9050613086828261303f565b919050565b600067ffffffffffffffff8211156130a6576130a5613010565b5b6130af82612960565b9050602081019050919050565b82818337600083830152505050565b60006130de6130d98461308b565b613070565b9050828152602081018484840111156130fa576130f961300b565b5b6131058482856130bc565b509392505050565b600082601f83011261312257613121613006565b5b81356131328482602086016130cb565b91505092915050565b6000806000806080858703121561315557613154612e0e565b5b600085013567ffffffffffffffff81111561317357613172612e13565b5b61317f8782880161310d565b945050602061319087828801612e2f565b935050604085013567ffffffffffffffff8111156131b1576131b0612e13565b5b6131bd8782880161310d565b92505060606131ce87828801612e5b565b91505092959194509250565b6000806000806000806000806000806101408b8d0312156131fe576131fd612e0e565b5b60008b013567ffffffffffffffff81111561321c5761321b612e13565b5b6132288d828e0161310d565b9a505060208b013567ffffffffffffffff81111561324957613248612e13565b5b6132558d828e0161310d565b99505060408b013567ffffffffffffffff81111561327657613275612e13565b5b6132828d828e0161310d565b98505060608b013567ffffffffffffffff8111156132a3576132a2612e13565b5b6132af8d828e0161310d565b97505060808b013567ffffffffffffffff8111156132d0576132cf612e13565b5b6132dc8d828e0161310d565b96505060a08b013567ffffffffffffffff8111156132fd576132fc612e13565b5b6133098d828e0161310d565b95505060c08b013567ffffffffffffffff81111561332a57613329612e13565b5b6133368d828e0161310d565b94505060e08b013567ffffffffffffffff81111561335757613356612e13565b5b6133638d828e0161310d565b9350506101008b013567ffffffffffffffff81111561338557613384612e13565b5b6133918d828e0161310d565b9250506101208b013567ffffffffffffffff8111156133b3576133b2612e13565b5b6133bf8d828e0161310d565b9150509295989b9194979a5092959850565b600080600080600060a086880312156133ed576133ec612e0e565b5b600086013567ffffffffffffffff81111561340b5761340a612e13565b5b6134178882890161310d565b955050602086013567ffffffffffffffff81111561343857613437612e13565b5b6134448882890161310d565b945050604086013567ffffffffffffffff81111561346557613464612e13565b5b6134718882890161310d565b935050606086013567ffffffffffffffff81111561349257613491612e13565b5b61349e8882890161310d565b925050608086013567ffffffffffffffff8111156134bf576134be612e13565b5b6134cb8882890161310d565b9150509295509295909350565b60008060008060008060008060006101208a8c0312156134fb576134fa612e0e565b5b60008a013567ffffffffffffffff81111561351957613518612e13565b5b6135258c828d0161310d565b99505060208a013567ffffffffffffffff81111561354657613545612e13565b5b6135528c828d0161310d565b98505060408a013567ffffffffffffffff81111561357357613572612e13565b5b61357f8c828d0161310d565b97505060608a013567ffffffffffffffff8111156135a05761359f612e13565b5b6135ac8c828d0161310d565b96505060808a013567ffffffffffffffff8111156135cd576135cc612e13565b5b6135d98c828d0161310d565b95505060a08a013567ffffffffffffffff8111156135fa576135f9612e13565b5b6136068c828d0161310d565b94505060c08a013567ffffffffffffffff81111561362757613626612e13565b5b6136338c828d0161310d565b93505060e08a013567ffffffffffffffff81111561365457613653612e13565b5b6136608c828d0161310d565b9250506101008a013567ffffffffffffffff81111561368257613681612e13565b5b61368e8c828d0161310d565b9150509295985092959850929598565b600060a08201905081810360008301526136b881886129cb565b905081810360208301526136cc81876129cb565b905081810360408301526136e081866129cb565b905081810360608301526136f481856129cb565b9050818103608083015261370881846129cb565b90509695505050505050565b60008060006060848603121561372d5761372c612e0e565b5b600061373b86828701612e2f565b935050602061374c86828701612e2f565b925050604084013567ffffffffffffffff81111561376d5761376c612e13565b5b6137798682870161310d565b9150509250925092565b7f4e487b7100000000000000000000000000000000000000000000000000000000600052602260045260246000fd5b600060028204905060018216806137ca57607f821691505b6020821081036137dd576137dc613783565b5b50919050565b7f4e487b7100000000000000000000000000000000000000000000000000000000600052603260045260246000fd5b7f4e487b7100000000000000000000000000000000000000000000000000000000600052601160045260246000fd5b600061384c82612b38565b91507fffffffffffffffffffffffffffffffffffffffffffffffffffffffffffffffff820361387e5761387d613812565b5b600182019050919050565b60008190508160005260206000209050919050565b60006020601f8301049050919050565b600082821b905092915050565b6000600883026138eb7fffffffffffffffffffffffffffffffffffffffffffffffffffffffffffffffff826138ae565b6138f586836138ae565b95508019841693508086168417925050509392505050565b6000819050919050565b600061393261392d61392884612b38565b61390d565b612b38565b9050919050565b6000819050919050565b61394c83613917565b61396061395882613939565b8484546138bb565b825550505050565b600090565b613975613968565b613980818484613943565b505050565b5b818110156139a45761399960008261396d565b600181019050613986565b5050565b601f8211156139e9576139ba81613889565b6139c38461389e565b810160208510156139d2578190505b6139e66139de8561389e565b830182613985565b50505b505050565b600082821c905092915050565b6000613a0c600019846008026139ee565b1980831691505092915050565b6000613a2583836139fb565b9150826002028217905092915050565b613a3e8261291a565b67ffffffffffffffff811115613a5757613a56613010565b5b613a6182546137b2565b613a6c8282856139a8565b600060209050601f831160018114613a9f5760008415613a8d578287015190505b613a978582613a19565b865550613aff565b601f198416613aad86613889565b60005b82811015613ad557848901518255600182019150602085019450602081019050613ab0565b86831015613af25784890151613aee601f8916826139fb565b8355505b6001600288020188555050505b505050505050565b6000613b1282612b38565b9150613b1d83612b38565b9250828201905080821115613b3557613b34613812565b5b9291505056fea26469706673582212204552aeafea701c3856547a74c8314d912fb5167b66ba43b5b84d43ff4cde2c9264736f6c63430008130033",
  "immutableReferences": {},
  "source": "// SPDX-License-Identifier: MIT\r\npragma solidity >=0.4.22 <0.9.0;\r\npragma experimental ABIEncoderV2;\r\n\r\ncontract ehr {\r\n  \r\n  address[] _doctors;\r\n  string[] _dnames;\r\n  uint[] _dpasswords;\r\n  string[] _demails;\r\n\r\n  address[] _patients;\r\n  string[] _pnames;\r\n  uint[] _ppasswords;\r\n  string[] _pemails;\r\n\r\n  address[] _cpatients;\r\n  address[] _cdoctors;\r\n  uint[] _appointmentids;\r\n\r\n  uint appid=0;\r\n  \r\n  string[] _cfullNames;\r\n  string[] _cdobs;\r\n  string[] _cgenders;\r\n  string[] _caddresses;\r\n  string[] _cphones;\r\n  string[] _cemails;\r\n  string[] _cemergNames;\r\n  string[] _cemergRelations;\r\n  string[] _cemergContacts;\r\n\r\n  string[] _cmeds;\r\n  string[] _callergies;\r\n  string[] _cpastMedHistory;\r\n  string[] _cfamMedHistory;\r\n  string[] _csocialHistory;\r\n\r\n  string[] _cbp;\r\n  string[] _cpulse;\r\n  string[] _ctemp;\r\n  string[] _crespiratoryRate;\r\n  string[] _cweight;\r\n  string[] _cheight;\r\n  string[] _cbmi;\r\n  string[] _creasonforvisit;\r\n  string[] _cphysicalexamination;\r\n  string[] _cdiagnosis;\r\n\r\n  string[] _cdates;\r\n  bool[] _cstatus;\r\n\r\n  function addDoctor(string memory email,address doctor, string memory name, uint password) public {\r\n    _doctors.push(doctor);\r\n    _dnames.push(name);\r\n    _demails.push(email);\r\n    _dpasswords.push(password);\r\n  }\r\n\r\n  function viewDoctors() public view returns(string[] memory,address[] memory, string[] memory, uint[] memory) {\r\n    return(_demails,_doctors,_dnames,_dpasswords);\r\n  }\r\n\r\n  function addPatient(string memory email,address patient, string memory name, uint password) public {\r\n    _patients.push(patient);\r\n    _pnames.push(name);\r\n    _ppasswords.push(password);\r\n    _pemails.push(email);\r\n  }\r\n\r\n  function viewPatients() public view returns(string[] memory,address[] memory, string[] memory, uint[] memory){\r\n    return(_pemails,_patients,_pnames,_ppasswords);\r\n  }\r\n\r\n  function createAppointment(address doctor, address patient, string memory date) public {\r\n    appid+=1;\r\n    _appointmentids.push(appid);\r\n    _cdoctors.push(doctor);\r\n    _cpatients.push(patient);\r\n    _cdates.push(date);\r\n    _cstatus.push(false);\r\n  }\r\n\r\n  function treatPatient(address doctor,address patient,uint aid) public{\r\n\r\n    uint i;\r\n    for(i=0;i<_cdoctors.length;i++) {\r\n      if(_cdoctors[i]==doctor && _cpatients[i]==patient && _appointmentids[i]==aid) {\r\n        _cstatus[i]=true;\r\n      }\r\n    }\r\n  }\r\n\r\n  function viewAppointments() public view returns(uint[] memory,address[] memory, address[] memory,string[] memory,bool[] memory) {\r\n    return (_appointmentids,_cdoctors,_cpatients,_cdates,_cstatus);\r\n  }\r\n\r\n  function storeDemographics(string memory fullName,string memory dob,string memory gender,string memory address1,string memory phone,string memory email,string memory emergName,string memory emergRelation,string memory emergContact) public {\r\n    _cfullNames.push(fullName);\r\n    _cdobs.push(dob);\r\n    _cgenders.push(gender);\r\n    _caddresses.push(address1);\r\n    _cphones.push(phone);\r\n    _cemails.push(email);\r\n    _cemergNames.push(emergName);\r\n    _cemergRelations.push(emergRelation);\r\n    _cemergContacts.push(emergContact);\r\n  }\r\n\r\n  function viewDemographics() public view returns(string[] memory,string[] memory,string[] memory,string[] memory,string[] memory,string[] memory,string[] memory,string[] memory,string[] memory) {\r\n    return(_cfullNames,_cdobs,_cgenders,_caddresses,_cphones,_cemails,_cemergNames,_cemergRelations,_cemergContacts);\r\n  }\r\n\r\n  function storeMedicalHistory(string memory meds,string memory allergies,string memory pastMedHistory,string memory famMedHistory,string memory socialHistory) public {\r\n    _cmeds.push(meds);\r\n    _callergies.push(allergies);\r\n    _cpastMedHistory.push(pastMedHistory);\r\n    _cfamMedHistory.push(famMedHistory);\r\n    _csocialHistory.push(socialHistory);\r\n  }\r\n\r\n  function viewMedicalHistory() public view returns(string[] memory, string[] memory, string[] memory,string[] memory,string[] memory) {\r\n    return (_cmeds,_callergies,_cpastMedHistory,_cfamMedHistory,_csocialHistory);\r\n  }\r\n\r\n  function storeClinicalData(string memory bp,string memory pulse,string memory temp,string memory respiratoryRate,string memory weight,string memory height,string memory bmi,string memory reasonforvisit,string memory physicalexamination,string memory diagnosis) public {\r\n    _cbp.push(bp);\r\n    _cpulse.push(pulse);\r\n    _ctemp.push(temp);\r\n    _crespiratoryRate.push(respiratoryRate);\r\n    _cweight.push(weight);\r\n    _cheight.push(height);\r\n    _cbmi.push(bmi);\r\n    _creasonforvisit.push(reasonforvisit);\r\n    _cphysicalexamination.push(physicalexamination);\r\n    _cdiagnosis.push(diagnosis);\r\n  }\r\n\r\n  function viewClinicalData() public view returns(string[] memory, string[] memory,string[] memory,string[] memory,string[] memory,string[] memory,string[] memory,string[] memory,string[] memory,string[] memory) {\r\n    return(_cbp,_cpulse,_ctemp,_crespiratoryRate,_cweight,_cheight,_cbmi,_creasonforvisit,_cphysicalexamination,_cdiagnosis);\r\n  }\r\n\r\n}\r\n",
  "sourcePath": "/Users/ms/Downloads/EHR_Blockchain/contracts/ehr.sol",
  "compiler": {
    "name": "solc",
    "version": "0.8.19+commit.7dd6d404.Emscripten.clang"
  },
  "schemaVersion": "3.4.16",
  "updatedAt": "2024-04-04T17:15:48.053Z",
  "networkType": "ethereum",
  "devdoc": {
    "kind": "dev",
    "methods": {},
    "version": 1
  },
  "userdoc": {
    "kind": "user",
    "methods": {},
    "version": 1
  }
}