{
  "contractName": "ehr",
  "abi": [
    {
      "inputs": [
        {
          "internalType": "address",
          "name": "doctor",
          "type": "address"
        },
        {
          "internalType": "string",
          "name": "name",
          "type": "string"
        },
        {
          "internalType": "uint256",
          "name": "password",
          "type": "uint256"
        }
      ],
      "name": "addDoctor",
      "outputs": [],
      "stateMutability": "nonpayable",
      "type": "function"
    },
    {
      "inputs": [],
      "name": "viewDoctors",
      "outputs": [
        {
          "internalType": "address[]",
          "name": "",
          "type": "address[]"
        },
        {
          "internalType": "string[]",
          "name": "",
          "type": "string[]"
        },
        {
          "internalType": "uint256[]",
          "name": "",
          "type": "uint256[]"
        }
      ],
      "stateMutability": "view",
      "type": "function",
      "constant": true
    },
    {
      "inputs": [
        {
          "internalType": "address",
          "name": "patient",
          "type": "address"
        },
        {
          "internalType": "string",
          "name": "name",
          "type": "string"
        },
        {
          "internalType": "uint256",
          "name": "password",
          "type": "uint256"
        }
      ],
      "name": "addPatient",
      "outputs": [],
      "stateMutability": "nonpayable",
      "type": "function"
    },
    {
      "inputs": [],
      "name": "viewPatients",
      "outputs": [
        {
          "internalType": "address[]",
          "name": "",
          "type": "address[]"
        },
        {
          "internalType": "string[]",
          "name": "",
          "type": "string[]"
        },
        {
          "internalType": "uint256[]",
          "name": "",
          "type": "uint256[]"
        }
      ],
      "stateMutability": "view",
      "type": "function",
      "constant": true
    },
    {
      "inputs": [
        {
          "internalType": "address",
          "name": "doctor",
          "type": "address"
        },
        {
          "internalType": "address",
          "name": "patient",
          "type": "address"
        },
        {
          "internalType": "string",
          "name": "date",
          "type": "string"
        }
      ],
      "name": "createAppointment",
      "outputs": [],
      "stateMutability": "nonpayable",
      "type": "function"
    },
    {
      "inputs": [
        {
          "internalType": "address",
          "name": "doctor",
          "type": "address"
        },
        {
          "internalType": "address",
          "name": "patient",
          "type": "address"
        }
      ],
      "name": "treatPatient",
      "outputs": [],
      "stateMutability": "nonpayable",
      "type": "function"
    },
    {
      "inputs": [],
      "name": "viewAppointments",
      "outputs": [
        {
          "internalType": "address[]",
          "name": "",
          "type": "address[]"
        },
        {
          "internalType": "address[]",
          "name": "",
          "type": "address[]"
        },
        {
          "internalType": "string[]",
          "name": "",
          "type": "string[]"
        },
        {
          "internalType": "bool[]",
          "name": "",
          "type": "bool[]"
        }
      ],
      "stateMutability": "view",
      "type": "function",
      "constant": true
    },
    {
      "inputs": [
        {
          "internalType": "string",
          "name": "fullName",
          "type": "string"
        },
        {
          "internalType": "string",
          "name": "dob",
          "type": "string"
        },
        {
          "internalType": "string",
          "name": "gender",
          "type": "string"
        },
        {
          "internalType": "string",
          "name": "address1",
          "type": "string"
        },
        {
          "internalType": "string",
          "name": "phone",
          "type": "string"
        },
        {
          "internalType": "string",
          "name": "email",
          "type": "string"
        },
        {
          "internalType": "string",
          "name": "emergName",
          "type": "string"
        },
        {
          "internalType": "string",
          "name": "emergRelation",
          "type": "string"
        },
        {
          "internalType": "string",
          "name": "emergContact",
          "type": "string"
        }
      ],
      "name": "storeDemographics",
      "outputs": [],
      "stateMutability": "nonpayable",
      "type": "function"
    },
    {
      "inputs": [],
      "name": "viewDemographics",
      "outputs": [
        {
          "internalType": "string[]",
          "name": "",
          "type": "string[]"
        },
        {
          "internalType": "string[]",
          "name": "",
          "type": "string[]"
        },
        {
          "internalType": "string[]",
          "name": "",
          "type": "string[]"
        },
        {
          "internalType": "string[]",
          "name": "",
          "type": "string[]"
        },
        {
          "internalType": "string[]",
          "name": "",
          "type": "string[]"
        },
        {
          "internalType": "string[]",
          "name": "",
          "type": "string[]"
        },
        {
          "internalType": "string[]",
          "name": "",
          "type": "string[]"
        },
        {
          "internalType": "string[]",
          "name": "",
          "type": "string[]"
        },
        {
          "internalType": "string[]",
          "name": "",
          "type": "string[]"
        }
      ],
      "stateMutability": "view",
      "type": "function",
      "constant": true
    },
    {
      "inputs": [
        {
          "internalType": "string",
          "name": "meds",
          "type": "string"
        },
        {
          "internalType": "string",
          "name": "allergies",
          "type": "string"
        },
        {
          "internalType": "string",
          "name": "pastMedHistory",
          "type": "string"
        },
        {
          "internalType": "string",
          "name": "famMedHistory",
          "type": "string"
        },
        {
          "internalType": "string",
          "name": "socialHistory",
          "type": "string"
        }
      ],
      "name": "storeMedicalHistory",
      "outputs": [],
      "stateMutability": "nonpayable",
      "type": "function"
    },
    {
      "inputs": [],
      "name": "viewMedicalHistory",
      "outputs": [
        {
          "internalType": "string[]",
          "name": "",
          "type": "string[]"
        },
        {
          "internalType": "string[]",
          "name": "",
          "type": "string[]"
        },
        {
          "internalType": "string[]",
          "name": "",
          "type": "string[]"
        },
        {
          "internalType": "string[]",
          "name": "",
          "type": "string[]"
        },
        {
          "internalType": "string[]",
          "name": "",
          "type": "string[]"
        }
      ],
      "stateMutability": "view",
      "type": "function",
      "constant": true
    },
    {
      "inputs": [
        {
          "internalType": "string",
          "name": "bp",
          "type": "string"
        },
        {
          "internalType": "string",
          "name": "pulse",
          "type": "string"
        },
        {
          "internalType": "string",
          "name": "temp",
          "type": "string"
        },
        {
          "internalType": "string",
          "name": "respiratoryRate",
          "type": "string"
        },
        {
          "internalType": "string",
          "name": "weight",
          "type": "string"
        },
        {
          "internalType": "string",
          "name": "height",
          "type": "string"
        },
        {
          "internalType": "string",
          "name": "bmi",
          "type": "string"
        },
        {
          "internalType": "string",
          "name": "reasonforvisit",
          "type": "string"
        },
        {
          "internalType": "string",
          "name": "physicalexamination",
          "type": "string"
        },
        {
          "internalType": "string",
          "name": "diagnosis",
          "type": "string"
        }
      ],
      "name": "storeClinicalData",
      "outputs": [],
      "stateMutability": "nonpayable",
      "type": "function"
    },
    {
      "inputs": [],
      "name": "viewClinicalData",
      "outputs": [
        {
          "internalType": "string[]",
          "name": "",
          "type": "string[]"
        },
        {
          "internalType": "string[]",
          "name": "",
          "type": "string[]"
        },
        {
          "internalType": "string[]",
          "name": "",
          "type": "string[]"
        },
        {
          "internalType": "string[]",
          "name": "",
          "type": "string[]"
        },
        {
          "internalType": "string[]",
          "name": "",
          "type": "string[]"
        },
        {
          "internalType": "string[]",
          "name": "",
          "type": "string[]"
        },
        {
          "internalType": "string[]",
          "name": "",
          "type": "string[]"
        },
        {
          "internalType": "string[]",
          "name": "",
          "type": "string[]"
        },
        {
          "internalType": "string[]",
          "name": "",
          "type": "string[]"
        },
        {
          "internalType": "string[]",
          "name": "",
          "type": "string[]"
        }
      ],
      "stateMutability": "view",
      "type": "function",
      "constant": true
    }
  ],
  "bytecode": "0x608060405234801561001057600080fd5b506137e7806100206000396000f3fe608060405234801561001057600080fd5b50600436106100cf5760003560e01c8063b024859b1161008c578063cf1aa8e511610066578063cf1aa8e5146101f2578063e0eea17314610214578063e68c747714610230578063ebda21ed1461024c576100cf565b8063b024859b1461019a578063b77ea8ee146101b6578063bd9178af146101d2576100cf565b8063014f03c5146100d457806309e90fde146100fa578063181b69d91461011b5780631c13ab61146101425780633e2ed163146101625780635b6a3eb71461017e575b600080fd5b6100dc610268565b6040516100f199989796959493929190612757565b60405180910390f35b610102610a10565b60405161011294939291906129dd565b60405180910390f35b610123610c86565b6040516101399a99989796959493929190612a3e565b60405180910390f35b61014a611507565b60405161015993929190612be8565b60405180910390f35b61017c60048036038101906101779190612d7d565b6116ca565b005b61019860048036038101906101939190612fa0565b6118e8565b005b6101b460048036038101906101af9190612fe0565b611a37565b005b6101d060048036038101906101cb91906130e7565b611b47565b005b6101da611d2f565b6040516101e993929190612be8565b60405180910390f35b6101fa611ef2565b60405161020b9594939291906132ad565b60405180910390f35b61022e6004803603810190610229919061334f565b612334565b005b61024a600480360381019061024591906133be565b6123fa565b005b6102666004803603810190610261919061334f565b61253f565b005b606080606080606080606080606060086009600a600b600c600d600e600f601088805480602002602001604051908101604052809291908181526020016000905b828210156103555783829060005260206000200180546102c89061345c565b80601f01602080910402602001604051908101604052809291908181526020018280546102f49061345c565b80156103415780601f1061031657610100808354040283529160200191610341565b820191906000526020600020905b81548152906001019060200180831161032457829003601f168201915b5050505050815260200190600101906102a9565b50505050985087805480602002602001604051908101604052809291908181526020016000905b8282101561042857838290600052602060002001805461039b9061345c565b80601f01602080910402602001604051908101604052809291908181526020018280546103c79061345c565b80156104145780601f106103e957610100808354040283529160200191610414565b820191906000526020600020905b8154815290600101906020018083116103f757829003601f168201915b50505050508152602001906001019061037c565b50505050975086805480602002602001604051908101604052809291908181526020016000905b828210156104fb57838290600052602060002001805461046e9061345c565b80601f016020809104026020016040519081016040528092919081815260200182805461049a9061345c565b80156104e75780601f106104bc576101008083540402835291602001916104e7565b820191906000526020600020905b8154815290600101906020018083116104ca57829003601f168201915b50505050508152602001906001019061044f565b50505050965085805480602002602001604051908101604052809291908181526020016000905b828210156105ce5783829060005260206000200180546105419061345c565b80601f016020809104026020016040519081016040528092919081815260200182805461056d9061345c565b80156105ba5780601f1061058f576101008083540402835291602001916105ba565b820191906000526020600020905b81548152906001019060200180831161059d57829003601f168201915b505050505081526020019060010190610522565b50505050955084805480602002602001604051908101604052809291908181526020016000905b828210156106a15783829060005260206000200180546106149061345c565b80601f01602080910402602001604051908101604052809291908181526020018280546106409061345c565b801561068d5780601f106106625761010080835404028352916020019161068d565b820191906000526020600020905b81548152906001019060200180831161067057829003601f168201915b5050505050815260200190600101906105f5565b50505050945083805480602002602001604051908101604052809291908181526020016000905b828210156107745783829060005260206000200180546106e79061345c565b80601f01602080910402602001604051908101604052809291908181526020018280546107139061345c565b80156107605780601f1061073557610100808354040283529160200191610760565b820191906000526020600020905b81548152906001019060200180831161074357829003601f168201915b5050505050815260200190600101906106c8565b50505050935082805480602002602001604051908101604052809291908181526020016000905b828210156108475783829060005260206000200180546107ba9061345c565b80601f01602080910402602001604051908101604052809291908181526020018280546107e69061345c565b80156108335780601f1061080857610100808354040283529160200191610833565b820191906000526020600020905b81548152906001019060200180831161081657829003601f168201915b50505050508152602001906001019061079b565b50505050925081805480602002602001604051908101604052809291908181526020016000905b8282101561091a57838290600052602060002001805461088d9061345c565b80601f01602080910402602001604051908101604052809291908181526020018280546108b99061345c565b80156109065780601f106108db57610100808354040283529160200191610906565b820191906000526020600020905b8154815290600101906020018083116108e957829003601f168201915b50505050508152602001906001019061086e565b50505050915080805480602002602001604051908101604052809291908181526020016000905b828210156109ed5783829060005260206000200180546109609061345c565b80601f016020809104026020016040519081016040528092919081815260200182805461098c9061345c565b80156109d95780601f106109ae576101008083540402835291602001916109d9565b820191906000526020600020905b8154815290600101906020018083116109bc57829003601f168201915b505050505081526020019060010190610941565b505050509050985098509850985098509850985098509850909192939495969798565b606080606080600760066020602183805480602002602001604051908101604052809291908181526020018280548015610a9f57602002820191906000526020600020905b8160009054906101000a900473ffffffffffffffffffffffffffffffffffffffff1673ffffffffffffffffffffffffffffffffffffffff1681526020019060010190808311610a55575b5050505050935082805480602002602001604051908101604052809291908181526020018280548015610b2757602002820191906000526020600020905b8160009054906101000a900473ffffffffffffffffffffffffffffffffffffffff1673ffffffffffffffffffffffffffffffffffffffff1681526020019060010190808311610add575b5050505050925081805480602002602001604051908101604052809291908181526020016000905b82821015610bfb578382906000526020600020018054610b6e9061345c565b80601f0160208091040260200160405190810160405280929190818152602001828054610b9a9061345c565b8015610be75780601f10610bbc57610100808354040283529160200191610be7565b820191906000526020600020905b815481529060010190602001808311610bca57829003601f168201915b505050505081526020019060010190610b4f565b50505050915080805480602002602001604051908101604052809291908181526020018280548015610c7157602002820191906000526020600020906000905b82829054906101000a900460ff16151581526020019060010190602082600001049283019260010382029150808411610c3b5790505b50505050509050935093509350935090919293565b6060806060806060806060806060806016601760186019601a601b601c601d601e601f89805480602002602001604051908101604052809291908181526020016000905b82821015610d76578382906000526020600020018054610ce99061345c565b80601f0160208091040260200160405190810160405280929190818152602001828054610d159061345c565b8015610d625780601f10610d3757610100808354040283529160200191610d62565b820191906000526020600020905b815481529060010190602001808311610d4557829003601f168201915b505050505081526020019060010190610cca565b50505050995088805480602002602001604051908101604052809291908181526020016000905b82821015610e49578382906000526020600020018054610dbc9061345c565b80601f0160208091040260200160405190810160405280929190818152602001828054610de89061345c565b8015610e355780601f10610e0a57610100808354040283529160200191610e35565b820191906000526020600020905b815481529060010190602001808311610e1857829003601f168201915b505050505081526020019060010190610d9d565b50505050985087805480602002602001604051908101604052809291908181526020016000905b82821015610f1c578382906000526020600020018054610e8f9061345c565b80601f0160208091040260200160405190810160405280929190818152602001828054610ebb9061345c565b8015610f085780601f10610edd57610100808354040283529160200191610f08565b820191906000526020600020905b815481529060010190602001808311610eeb57829003601f168201915b505050505081526020019060010190610e70565b50505050975086805480602002602001604051908101604052809291908181526020016000905b82821015610fef578382906000526020600020018054610f629061345c565b80601f0160208091040260200160405190810160405280929190818152602001828054610f8e9061345c565b8015610fdb5780601f10610fb057610100808354040283529160200191610fdb565b820191906000526020600020905b815481529060010190602001808311610fbe57829003601f168201915b505050505081526020019060010190610f43565b50505050965085805480602002602001604051908101604052809291908181526020016000905b828210156110c25783829060005260206000200180546110359061345c565b80601f01602080910402602001604051908101604052809291908181526020018280546110619061345c565b80156110ae5780601f10611083576101008083540402835291602001916110ae565b820191906000526020600020905b81548152906001019060200180831161109157829003601f168201915b505050505081526020019060010190611016565b50505050955084805480602002602001604051908101604052809291908181526020016000905b828210156111955783829060005260206000200180546111089061345c565b80601f01602080910402602001604051908101604052809291908181526020018280546111349061345c565b80156111815780601f1061115657610100808354040283529160200191611181565b820191906000526020600020905b81548152906001019060200180831161116457829003601f168201915b5050505050815260200190600101906110e9565b50505050945083805480602002602001604051908101604052809291908181526020016000905b828210156112685783829060005260206000200180546111db9061345c565b80601f01602080910402602001604051908101604052809291908181526020018280546112079061345c565b80156112545780601f1061122957610100808354040283529160200191611254565b820191906000526020600020905b81548152906001019060200180831161123757829003601f168201915b5050505050815260200190600101906111bc565b50505050935082805480602002602001604051908101604052809291908181526020016000905b8282101561133b5783829060005260206000200180546112ae9061345c565b80601f01602080910402602001604051908101604052809291908181526020018280546112da9061345c565b80156113275780601f106112fc57610100808354040283529160200191611327565b820191906000526020600020905b81548152906001019060200180831161130a57829003601f168201915b50505050508152602001906001019061128f565b50505050925081805480602002602001604051908101604052809291908181526020016000905b8282101561140e5783829060005260206000200180546113819061345c565b80601f01602080910402602001604051908101604052809291908181526020018280546113ad9061345c565b80156113fa5780601f106113cf576101008083540402835291602001916113fa565b820191906000526020600020905b8154815290600101906020018083116113dd57829003601f168201915b505050505081526020019060010190611362565b50505050915080805480602002602001604051908101604052809291908181526020016000905b828210156114e15783829060005260206000200180546114549061345c565b80601f01602080910402602001604051908101604052809291908181526020018280546114809061345c565b80156114cd5780601f106114a2576101008083540402835291602001916114cd565b820191906000526020600020905b8154815290600101906020018083116114b057829003601f168201915b505050505081526020019060010190611435565b505050509050995099509950995099509950995099509950995090919293949596979899565b60608060606003600460058280548060200260200160405190810160405280929190818152602001828054801561159357602002820191906000526020600020905b8160009054906101000a900473ffffffffffffffffffffffffffffffffffffffff1673ffffffffffffffffffffffffffffffffffffffff1681526020019060010190808311611549575b5050505050925081805480602002602001604051908101604052809291908181526020016000905b828210156116675783829060005260206000200180546115da9061345c565b80601f01602080910402602001604051908101604052809291908181526020018280546116069061345c565b80156116535780601f1061162857610100808354040283529160200191611653565b820191906000526020600020905b81548152906001019060200180831161163657829003601f168201915b5050505050815260200190600101906115bb565b505050509150808054806020026020016040519081016040528092919081815260200182805480156116b857602002820191906000526020600020905b8154815260200190600101908083116116a4575b50505050509050925092509250909192565b60168a9080600181540180825580915050600190039060005260206000200160009091909190915090816116fe9190613639565b506017899080600181540180825580915050600190039060005260206000200160009091909190915090816117339190613639565b506018889080600181540180825580915050600190039060005260206000200160009091909190915090816117689190613639565b5060198790806001815401808255809150506001900390600052602060002001600090919091909150908161179d9190613639565b50601a869080600181540180825580915050600190039060005260206000200160009091909190915090816117d29190613639565b50601b859080600181540180825580915050600190039060005260206000200160009091909190915090816118079190613639565b50601c8490806001815401808255809150506001900390600052602060002001600090919091909150908161183c9190613639565b50601d839080600181540180825580915050600190039060005260206000200160009091909190915090816118719190613639565b50601e829080600181540180825580915050600190039060005260206000200160009091909190915090816118a69190613639565b50601f819080600181540180825580915050600190039060005260206000200160009091909190915090816118db9190613639565b5050505050505050505050565b60005b600780549050811015611a32578273ffffffffffffffffffffffffffffffffffffffff16600782815481106119235761192261370b565b5b9060005260206000200160009054906101000a900473ffffffffffffffffffffffffffffffffffffffff1673ffffffffffffffffffffffffffffffffffffffff161480156119da57508173ffffffffffffffffffffffffffffffffffffffff16600682815481106119975761199661370b565b5b9060005260206000200160009054906101000a900473ffffffffffffffffffffffffffffffffffffffff1673ffffffffffffffffffffffffffffffffffffffff16145b15611a1f576001602182815481106119f5576119f461370b565b5b90600052602060002090602091828204019190066101000a81548160ff0219169083151502179055505b8080611a2a90613769565b9150506118eb565b505050565b601185908060018154018082558091505060019003906000526020600020016000909190919091509081611a6b9190613639565b50601284908060018154018082558091505060019003906000526020600020016000909190919091509081611aa09190613639565b50601383908060018154018082558091505060019003906000526020600020016000909190919091509081611ad59190613639565b50601482908060018154018082558091505060019003906000526020600020016000909190919091509081611b0a9190613639565b50601581908060018154018082558091505060019003906000526020600020016000909190919091509081611b3f9190613639565b505050505050565b600889908060018154018082558091505060019003906000526020600020016000909190919091509081611b7b9190613639565b50600988908060018154018082558091505060019003906000526020600020016000909190919091509081611bb09190613639565b50600a87908060018154018082558091505060019003906000526020600020016000909190919091509081611be59190613639565b50600b86908060018154018082558091505060019003906000526020600020016000909190919091509081611c1a9190613639565b50600c85908060018154018082558091505060019003906000526020600020016000909190919091509081611c4f9190613639565b50600d84908060018154018082558091505060019003906000526020600020016000909190919091509081611c849190613639565b50600e83908060018154018082558091505060019003906000526020600020016000909190919091509081611cb99190613639565b50600f82908060018154018082558091505060019003906000526020600020016000909190919091509081611cee9190613639565b50601081908060018154018082558091505060019003906000526020600020016000909190919091509081611d239190613639565b50505050505050505050565b606080606060006001600282805480602002602001604051908101604052809291908181526020018280548015611dbb57602002820191906000526020600020905b8160009054906101000a900473ffffffffffffffffffffffffffffffffffffffff1673ffffffffffffffffffffffffffffffffffffffff1681526020019060010190808311611d71575b5050505050925081805480602002602001604051908101604052809291908181526020016000905b82821015611e8f578382906000526020600020018054611e029061345c565b80601f0160208091040260200160405190810160405280929190818152602001828054611e2e9061345c565b8015611e7b5780601f10611e5057610100808354040283529160200191611e7b565b820191906000526020600020905b815481529060010190602001808311611e5e57829003601f168201915b505050505081526020019060010190611de3565b50505050915080805480602002602001604051908101604052809291908181526020018280548015611ee057602002820191906000526020600020905b815481526020019060010190808311611ecc575b50505050509050925092509250909192565b60608060608060606011601260136014601584805480602002602001604051908101604052809291908181526020016000905b82821015611fd1578382906000526020600020018054611f449061345c565b80601f0160208091040260200160405190810160405280929190818152602001828054611f709061345c565b8015611fbd5780601f10611f9257610100808354040283529160200191611fbd565b820191906000526020600020905b815481529060010190602001808311611fa057829003601f168201915b505050505081526020019060010190611f25565b50505050945083805480602002602001604051908101604052809291908181526020016000905b828210156120a45783829060005260206000200180546120179061345c565b80601f01602080910402602001604051908101604052809291908181526020018280546120439061345c565b80156120905780601f1061206557610100808354040283529160200191612090565b820191906000526020600020905b81548152906001019060200180831161207357829003601f168201915b505050505081526020019060010190611ff8565b50505050935082805480602002602001604051908101604052809291908181526020016000905b828210156121775783829060005260206000200180546120ea9061345c565b80601f01602080910402602001604051908101604052809291908181526020018280546121169061345c565b80156121635780601f1061213857610100808354040283529160200191612163565b820191906000526020600020905b81548152906001019060200180831161214657829003601f168201915b5050505050815260200190600101906120cb565b50505050925081805480602002602001604051908101604052809291908181526020016000905b8282101561224a5783829060005260206000200180546121bd9061345c565b80601f01602080910402602001604051908101604052809291908181526020018280546121e99061345c565b80156122365780601f1061220b57610100808354040283529160200191612236565b820191906000526020600020905b81548152906001019060200180831161221957829003601f168201915b50505050508152602001906001019061219e565b50505050915080805480602002602001604051908101604052809291908181526020016000905b8282101561231d5783829060005260206000200180546122909061345c565b80601f01602080910402602001604051908101604052809291908181526020018280546122bc9061345c565b80156123095780601f106122de57610100808354040283529160200191612309565b820191906000526020600020905b8154815290600101906020018083116122ec57829003601f168201915b505050505081526020019060010190612271565b505050509050945094509450945094509091929394565b6000839080600181540180825580915050600190039060005260206000200160009091909190916101000a81548173ffffffffffffffffffffffffffffffffffffffff021916908373ffffffffffffffffffffffffffffffffffffffff1602179055506001829080600181540180825580915050600190039060005260206000200160009091909190915090816123cb9190613639565b506002819080600181540180825580915050600190039060005260206000200160009091909190915055505050565b6007839080600181540180825580915050600190039060005260206000200160009091909190916101000a81548173ffffffffffffffffffffffffffffffffffffffff021916908373ffffffffffffffffffffffffffffffffffffffff1602179055506006829080600181540180825580915050600190039060005260206000200160009091909190916101000a81548173ffffffffffffffffffffffffffffffffffffffff021916908373ffffffffffffffffffffffffffffffffffffffff1602179055506020819080600181540180825580915050600190039060005260206000200160009091909190915090816124f49190613639565b506021600090806001815401808255809150506001900390600052602060002090602091828204019190069091909190916101000a81548160ff021916908315150217905550505050565b6003839080600181540180825580915050600190039060005260206000200160009091909190916101000a81548173ffffffffffffffffffffffffffffffffffffffff021916908373ffffffffffffffffffffffffffffffffffffffff1602179055506004829080600181540180825580915050600190039060005260206000200160009091909190915090816125d69190613639565b506005819080600181540180825580915050600190039060005260206000200160009091909190915055505050565b600081519050919050565b600082825260208201905092915050565b6000819050602082019050919050565b600081519050919050565b600082825260208201905092915050565b60005b8381101561266b578082015181840152602081019050612650565b60008484015250505050565b6000601f19601f8301169050919050565b600061269382612631565b61269d818561263c565b93506126ad81856020860161264d565b6126b681612677565b840191505092915050565b60006126cd8383612688565b905092915050565b6000602082019050919050565b60006126ed82612605565b6126f78185612610565b93508360208202850161270985612621565b8060005b85811015612745578484038952815161272685826126c1565b9450612731836126d5565b925060208a0199505060018101905061270d565b50829750879550505050505092915050565b6000610120820190508181036000830152612772818c6126e2565b90508181036020830152612786818b6126e2565b9050818103604083015261279a818a6126e2565b905081810360608301526127ae81896126e2565b905081810360808301526127c281886126e2565b905081810360a08301526127d681876126e2565b905081810360c08301526127ea81866126e2565b905081810360e08301526127fe81856126e2565b905081810361010083015261281381846126e2565b90509a9950505050505050505050565b600081519050919050565b600082825260208201905092915050565b6000819050602082019050919050565b600073ffffffffffffffffffffffffffffffffffffffff82169050919050565b600061287a8261284f565b9050919050565b61288a8161286f565b82525050565b600061289c8383612881565b60208301905092915050565b6000602082019050919050565b60006128c082612823565b6128ca818561282e565b93506128d58361283f565b8060005b838110156129065781516128ed8882612890565b97506128f8836128a8565b9250506001810190506128d9565b5085935050505092915050565b600081519050919050565b600082825260208201905092915050565b6000819050602082019050919050565b60008115159050919050565b6129548161293f565b82525050565b6000612966838361294b565b60208301905092915050565b6000602082019050919050565b600061298a82612913565b612994818561291e565b935061299f8361292f565b8060005b838110156129d05781516129b7888261295a565b97506129c283612972565b9250506001810190506129a3565b5085935050505092915050565b600060808201905081810360008301526129f781876128b5565b90508181036020830152612a0b81866128b5565b90508181036040830152612a1f81856126e2565b90508181036060830152612a33818461297f565b905095945050505050565b6000610140820190508181036000830152612a59818d6126e2565b90508181036020830152612a6d818c6126e2565b90508181036040830152612a81818b6126e2565b90508181036060830152612a95818a6126e2565b90508181036080830152612aa981896126e2565b905081810360a0830152612abd81886126e2565b905081810360c0830152612ad181876126e2565b905081810360e0830152612ae581866126e2565b9050818103610100830152612afa81856126e2565b9050818103610120830152612b0f81846126e2565b90509b9a5050505050505050505050565b600081519050919050565b600082825260208201905092915050565b6000819050602082019050919050565b6000819050919050565b612b5f81612b4c565b82525050565b6000612b718383612b56565b60208301905092915050565b6000602082019050919050565b6000612b9582612b20565b612b9f8185612b2b565b9350612baa83612b3c565b8060005b83811015612bdb578151612bc28882612b65565b9750612bcd83612b7d565b925050600181019050612bae565b5085935050505092915050565b60006060820190508181036000830152612c0281866128b5565b90508181036020830152612c1681856126e2565b90508181036040830152612c2a8184612b8a565b9050949350505050565b6000604051905090565b600080fd5b600080fd5b600080fd5b600080fd5b7f4e487b7100000000000000000000000000000000000000000000000000000000600052604160045260246000fd5b612c8a82612677565b810181811067ffffffffffffffff82111715612ca957612ca8612c52565b5b80604052505050565b6000612cbc612c34565b9050612cc88282612c81565b919050565b600067ffffffffffffffff821115612ce857612ce7612c52565b5b612cf182612677565b9050602081019050919050565b82818337600083830152505050565b6000612d20612d1b84612ccd565b612cb2565b905082815260208101848484011115612d3c57612d3b612c4d565b5b612d47848285612cfe565b509392505050565b600082601f830112612d6457612d63612c48565b5b8135612d74848260208601612d0d565b91505092915050565b6000806000806000806000806000806101408b8d031215612da157612da0612c3e565b5b60008b013567ffffffffffffffff811115612dbf57612dbe612c43565b5b612dcb8d828e01612d4f565b9a505060208b013567ffffffffffffffff811115612dec57612deb612c43565b5b612df88d828e01612d4f565b99505060408b013567ffffffffffffffff811115612e1957612e18612c43565b5b612e258d828e01612d4f565b98505060608b013567ffffffffffffffff811115612e4657612e45612c43565b5b612e528d828e01612d4f565b97505060808b013567ffffffffffffffff811115612e7357612e72612c43565b5b612e7f8d828e01612d4f565b96505060a08b013567ffffffffffffffff811115612ea057612e9f612c43565b5b612eac8d828e01612d4f565b95505060c08b013567ffffffffffffffff811115612ecd57612ecc612c43565b5b612ed98d828e01612d4f565b94505060e08b013567ffffffffffffffff811115612efa57612ef9612c43565b5b612f068d828e01612d4f565b9350506101008b013567ffffffffffffffff811115612f2857612f27612c43565b5b612f348d828e01612d4f565b9250506101208b013567ffffffffffffffff811115612f5657612f55612c43565b5b612f628d828e01612d4f565b9150509295989b9194979a5092959850565b612f7d8161286f565b8114612f8857600080fd5b50565b600081359050612f9a81612f74565b92915050565b60008060408385031215612fb757612fb6612c3e565b5b6000612fc585828601612f8b565b9250506020612fd685828601612f8b565b9150509250929050565b600080600080600060a08688031215612ffc57612ffb612c3e565b5b600086013567ffffffffffffffff81111561301a57613019612c43565b5b61302688828901612d4f565b955050602086013567ffffffffffffffff81111561304757613046612c43565b5b61305388828901612d4f565b945050604086013567ffffffffffffffff81111561307457613073612c43565b5b61308088828901612d4f565b935050606086013567ffffffffffffffff8111156130a1576130a0612c43565b5b6130ad88828901612d4f565b925050608086013567ffffffffffffffff8111156130ce576130cd612c43565b5b6130da88828901612d4f565b9150509295509295909350565b60008060008060008060008060006101208a8c03121561310a57613109612c3e565b5b60008a013567ffffffffffffffff81111561312857613127612c43565b5b6131348c828d01612d4f565b99505060208a013567ffffffffffffffff81111561315557613154612c43565b5b6131618c828d01612d4f565b98505060408a013567ffffffffffffffff81111561318257613181612c43565b5b61318e8c828d01612d4f565b97505060608a013567ffffffffffffffff8111156131af576131ae612c43565b5b6131bb8c828d01612d4f565b96505060808a013567ffffffffffffffff8111156131dc576131db612c43565b5b6131e88c828d01612d4f565b95505060a08a013567ffffffffffffffff81111561320957613208612c43565b5b6132158c828d01612d4f565b94505060c08a013567ffffffffffffffff81111561323657613235612c43565b5b6132428c828d01612d4f565b93505060e08a013567ffffffffffffffff81111561326357613262612c43565b5b61326f8c828d01612d4f565b9250506101008a013567ffffffffffffffff81111561329157613290612c43565b5b61329d8c828d01612d4f565b9150509295985092959850929598565b600060a08201905081810360008301526132c781886126e2565b905081810360208301526132db81876126e2565b905081810360408301526132ef81866126e2565b9050818103606083015261330381856126e2565b9050818103608083015261331781846126e2565b90509695505050505050565b61332c81612b4c565b811461333757600080fd5b50565b60008135905061334981613323565b92915050565b60008060006060848603121561336857613367612c3e565b5b600061337686828701612f8b565b935050602084013567ffffffffffffffff81111561339757613396612c43565b5b6133a386828701612d4f565b92505060406133b48682870161333a565b9150509250925092565b6000806000606084860312156133d7576133d6612c3e565b5b60006133e586828701612f8b565b93505060206133f686828701612f8b565b925050604084013567ffffffffffffffff81111561341757613416612c43565b5b61342386828701612d4f565b9150509250925092565b7f4e487b7100000000000000000000000000000000000000000000000000000000600052602260045260246000fd5b6000600282049050600182168061347457607f821691505b6020821081036134875761348661342d565b5b50919050565b60008190508160005260206000209050919050565b60006020601f8301049050919050565b600082821b905092915050565b6000600883026134ef7fffffffffffffffffffffffffffffffffffffffffffffffffffffffffffffffff826134b2565b6134f986836134b2565b95508019841693508086168417925050509392505050565b6000819050919050565b600061353661353161352c84612b4c565b613511565b612b4c565b9050919050565b6000819050919050565b6135508361351b565b61356461355c8261353d565b8484546134bf565b825550505050565b600090565b61357961356c565b613584818484613547565b505050565b5b818110156135a85761359d600082613571565b60018101905061358a565b5050565b601f8211156135ed576135be8161348d565b6135c7846134a2565b810160208510156135d6578190505b6135ea6135e2856134a2565b830182613589565b50505b505050565b600082821c905092915050565b6000613610600019846008026135f2565b1980831691505092915050565b600061362983836135ff565b9150826002028217905092915050565b61364282612631565b67ffffffffffffffff81111561365b5761365a612c52565b5b613665825461345c565b6136708282856135ac565b600060209050601f8311600181146136a35760008415613691578287015190505b61369b858261361d565b865550613703565b601f1984166136b18661348d565b60005b828110156136d9578489015182556001820191506020850194506020810190506136b4565b868310156136f657848901516136f2601f8916826135ff565b8355505b6001600288020188555050505b505050505050565b7f4e487b7100000000000000000000000000000000000000000000000000000000600052603260045260246000fd5b7f4e487b7100000000000000000000000000000000000000000000000000000000600052601160045260246000fd5b600061377482612b4c565b91507fffffffffffffffffffffffffffffffffffffffffffffffffffffffffffffffff82036137a6576137a561373a565b5b60018201905091905056fea264697066735822122087df487575d2bcfafb4b0d66fc5f37a1d265a4e0910815c632a9b6f8cab0dbf864736f6c63430008130033",
  "immutableReferences": {},
  "source": "// SPDX-License-Identifier: MIT\r\npragma solidity >=0.4.22 <0.9.0;\r\npragma experimental ABIEncoderV2;\r\n\r\ncontract ehr {\r\n  \r\n  address[] _doctors;\r\n  string[] _dnames;\r\n  uint[] _dpasswords;\r\n\r\n  address[] _patients;\r\n  string[] _pnames;\r\n  uint[] _ppasswords;\r\n\r\n  address[] _cpatients;\r\n  address[] _cdoctors;\r\n  \r\n  string[] _cfullNames;\r\n  string[] _cdobs;\r\n  string[] _cgenders;\r\n  string[] _caddresses;\r\n  string[] _cphones;\r\n  string[] _cemails;\r\n  string[] _cemergNames;\r\n  string[] _cemergRelations;\r\n  string[] _cemergContacts;\r\n\r\n  string[] _cmeds;\r\n  string[] _callergies;\r\n  string[] _cpastMedHistory;\r\n  string[] _cfamMedHistory;\r\n  string[] _csocialHistory;\r\n\r\n  string[] _cbp;\r\n  string[] _cpulse;\r\n  string[] _ctemp;\r\n  string[] _crespiratoryRate;\r\n  string[] _cweight;\r\n  string[] _cheight;\r\n  string[] _cbmi;\r\n  string[] _creasonforvisit;\r\n  string[] _cphysicalexamination;\r\n  string[] _cdiagnosis;\r\n\r\n  string[] _cdates;\r\n  bool[] _cstatus;\r\n\r\n  function addDoctor(address doctor, string memory name, uint password) public {\r\n    _doctors.push(doctor);\r\n    _dnames.push(name);\r\n    _dpasswords.push(password);\r\n  }\r\n\r\n  function viewDoctors() public view returns(address[] memory, string[] memory, uint[] memory) {\r\n    return(_doctors,_dnames,_dpasswords);\r\n  }\r\n\r\n  function addPatient(address patient, string memory name, uint password) public {\r\n    _patients.push(patient);\r\n    _pnames.push(name);\r\n    _ppasswords.push(password);\r\n  }\r\n\r\n  function viewPatients() public view returns(address[] memory, string[] memory, uint[] memory){\r\n    return(_patients,_pnames,_ppasswords);\r\n  }\r\n\r\n  function createAppointment(address doctor, address patient, string memory date) public {\r\n    _cdoctors.push(doctor);\r\n    _cpatients.push(patient);\r\n    _cdates.push(date);\r\n    _cstatus.push(false);\r\n  }\r\n\r\n  function treatPatient(address doctor,address patient) public{\r\n\r\n    uint i;\r\n    for(i=0;i<_cdoctors.length;i++) {\r\n      if(_cdoctors[i]==doctor && _cpatients[i]==patient) {\r\n        _cstatus[i]=true;\r\n      }\r\n    }\r\n  }\r\n\r\n  function viewAppointments() public view returns(address[] memory, address[] memory,string[] memory,bool[] memory) {\r\n    return (_cdoctors,_cpatients,_cdates,_cstatus);\r\n  }\r\n\r\n  function storeDemographics(string memory fullName,string memory dob,string memory gender,string memory address1,string memory phone,string memory email,string memory emergName,string memory emergRelation,string memory emergContact) public {\r\n    _cfullNames.push(fullName);\r\n    _cdobs.push(dob);\r\n    _cgenders.push(gender);\r\n    _caddresses.push(address1);\r\n    _cphones.push(phone);\r\n    _cemails.push(email);\r\n    _cemergNames.push(emergName);\r\n    _cemergRelations.push(emergRelation);\r\n    _cemergContacts.push(emergContact);\r\n  }\r\n\r\n  function viewDemographics() public view returns(string[] memory,string[] memory,string[] memory,string[] memory,string[] memory,string[] memory,string[] memory,string[] memory,string[] memory) {\r\n    return(_cfullNames,_cdobs,_cgenders,_caddresses,_cphones,_cemails,_cemergNames,_cemergRelations,_cemergContacts);\r\n  }\r\n\r\n  function storeMedicalHistory(string memory meds,string memory allergies,string memory pastMedHistory,string memory famMedHistory,string memory socialHistory) public {\r\n    _cmeds.push(meds);\r\n    _callergies.push(allergies);\r\n    _cpastMedHistory.push(pastMedHistory);\r\n    _cfamMedHistory.push(famMedHistory);\r\n    _csocialHistory.push(socialHistory);\r\n  }\r\n\r\n  function viewMedicalHistory() public view returns(string[] memory, string[] memory, string[] memory,string[] memory,string[] memory) {\r\n    return (_cmeds,_callergies,_cpastMedHistory,_cfamMedHistory,_csocialHistory);\r\n  }\r\n\r\n  function storeClinicalData(string memory bp,string memory pulse,string memory temp,string memory respiratoryRate,string memory weight,string memory height,string memory bmi,string memory reasonforvisit,string memory physicalexamination,string memory diagnosis) public {\r\n    _cbp.push(bp);\r\n    _cpulse.push(pulse);\r\n    _ctemp.push(temp);\r\n    _crespiratoryRate.push(respiratoryRate);\r\n    _cweight.push(weight);\r\n    _cheight.push(height);\r\n    _cbmi.push(bmi);\r\n    _creasonforvisit.push(reasonforvisit);\r\n    _cphysicalexamination.push(physicalexamination);\r\n    _cdiagnosis.push(diagnosis);\r\n  }\r\n\r\n  function viewClinicalData() public view returns(string[] memory, string[] memory,string[] memory,string[] memory,string[] memory,string[] memory,string[] memory,string[] memory,string[] memory,string[] memory) {\r\n    return(_cbp,_cpulse,_ctemp,_crespiratoryRate,_cweight,_cheight,_cbmi,_creasonforvisit,_cphysicalexamination,_cdiagnosis);\r\n  }\r\n\r\n}\r\n",
  "sourcePath": "/Users/ms/Downloads/EHR_Blockchain/contracts/ehr.sol",
  "compiler": {
    "name": "solc",
    "version": "0.8.19+commit.7dd6d404.Emscripten.clang"
  },
  "schemaVersion": "3.4.16",
  "updatedAt": "2024-04-04T06:37:42.117Z",
  "networkType": "ethereum",
  "devdoc": {
    "kind": "dev",
    "methods": {},
    "version": 1
  },
  "userdoc": {
    "kind": "user",
    "methods": {},
    "version": 1
  }
}